{
  "contractName": "FunctionsAndErrors",
  "abi": [
    {
      "inputs": [],
      "name": "Odd",
      "outputs": [
        {
          "internalType": "uint256",
          "name": "",
          "type": "uint256"
        }
      ],
      "stateMutability": "view",
      "type": "function",
      "constant": true
    },
    {
      "inputs": [
        {
          "internalType": "uint256",
          "name": "number",
          "type": "uint256"
        }
      ],
      "name": "requireOddNumber",
      "outputs": [],
      "stateMutability": "nonpayable",
      "type": "function"
    },
    {
      "inputs": [
        {
          "internalType": "uint256",
          "name": "number",
          "type": "uint256"
        }
      ],
      "name": "assertOddNumber",
      "outputs": [],
      "stateMutability": "nonpayable",
      "type": "function"
    },
    {
      "inputs": [
        {
          "internalType": "uint256",
          "name": "number",
          "type": "uint256"
        }
      ],
      "name": "revertOddNumber",
      "outputs": [],
      "stateMutability": "nonpayable",
      "type": "function"
    }
  ],
  "bytecode": "0x608060405234801561000f575f80fd5b506104628061001d5f395ff3fe608060405234801561000f575f80fd5b506004361061004a575f3560e01c806351843ba41461004e578063692cc5b11461006a578063de38eeef14610086578063e3a5ecb6146100a2575b5f80fd5b610068600480360381019061006391906101fb565b6100c0565b005b610084600480360381019061007f91906101fb565b610126565b005b6100a0600480360381019061009b91906101fb565b61015a565b005b6100aa6101bf565b6040516100b79190610235565b60405180910390f35b60016002826100cf919061027b565b1461010f576040517f08c379a000000000000000000000000000000000000000000000000000000000815260040161010690610305565b60405180910390fd5b5f80815461011c90610350565b9190508190555050565b6001600282610135919061027b565b1461014357610142610397565b5b5f80815461015090610350565b9190508190555050565b5f600282610168919061027b565b036101a8576040517f08c379a000000000000000000000000000000000000000000000000000000000815260040161019f9061040e565b60405180910390fd5b5f8081546101b590610350565b9190508190555050565b5f5481565b5f80fd5b5f819050919050565b6101da816101c8565b81146101e4575f80fd5b50565b5f813590506101f5816101d1565b92915050565b5f602082840312156102105761020f6101c4565b5b5f61021d848285016101e7565b91505092915050565b61022f816101c8565b82525050565b5f6020820190506102485f830184610226565b92915050565b7f4e487b71000000000000000000000000000000000000000000000000000000005f52601260045260245ffd5b5f610285826101c8565b9150610290836101c8565b9250826102a05761029f61024e565b5b828206905092915050565b5f82825260208201905092915050565b7f596f7520696e707574746564204576656e0000000000000000000000000000005f82015250565b5f6102ef6011836102ab565b91506102fa826102bb565b602082019050919050565b5f6020820190508181035f83015261031c816102e3565b9050919050565b7f4e487b71000000000000000000000000000000000000000000000000000000005f52601160045260245ffd5b5f61035a826101c8565b91507fffffffffffffffffffffffffffffffffffffffffffffffffffffffffffffffff820361038c5761038b610323565b5b600182019050919050565b7f4e487b71000000000000000000000000000000000000000000000000000000005f52600160045260245ffd5b7f596f7520696e707574746564206576656e0000000000000000000000000000005f82015250565b5f6103f86011836102ab565b9150610403826103c4565b602082019050919050565b5f6020820190508181035f830152610425816103ec565b905091905056fea2646970667358221220600c11d9181760b4a29fcbd86885726ee3d9c86313d1069d7ff8ace604f6e11064736f6c63430008140033",
  "immutableReferences": {},
  "source": "// SPDX-License-Identifier: MIT\npragma solidity ^0.8.17;\n\ncontract FunctionsAndErrors {\n    uint public Odd;\n\n    function requireOddNumber(uint number) external {\n        require(number % 2 == 1, \"You inputted Even\");\n        ++Odd;\n    }\n\n    function assertOddNumber(uint number) external {\n        assert(number % 2 == 1);\n        ++Odd;\n    }\n\n    function revertOddNumber(uint number) external {\n        if (number % 2 == 0) {\n            revert(\"You inputted even\");\n        }\n        ++Odd;\n    }\n}\n",
  "sourcePath": "/workspace/Functions_And_Errors_Garcia/contracts/FunctionsAndErrors.sol",
  "compiler": {
    "name": "solc",
    "version": "0.8.20+commit.a1b79de6.Emscripten.clang"
  },
  "schemaVersion": "3.4.14",
  "updatedAt": "2023-07-20T10:05:10.160Z",
  "networkType": "ethereum",
  "devdoc": {
    "kind": "dev",
    "methods": {},
    "version": 1
  },
  "userdoc": {
    "kind": "user",
    "methods": {},
    "version": 1
  }
}